:020000040800F2
:100000000004002081010008C1170008C117000882
:10001000C1170008C1170008C1170008C117000860
:10002000C1170008C1170008C1170008A114000873
:10003000C1170008C1170008C1170008C117000840
:10004000C1170008C1170008C1170008C117000830
:10005000C1170008C1170008C1170008C117000820
:10006000C1170008C1170008C1170008C117000810
:10007000C1170008C1170008C1170008C117000800
:10008000C1170008C1170008C1170008C1170008F0
:10009000C1170008C1170008C1170008C1170008E0
:1000A000C1170008D1130008C1170008C1170008C4
:1000B0002113000811140008C1170008C117000817
:1000C000C1170008C1170008C1170008C1170008B0
:1000D000C1170008C1170008911700087117000820
:1000E000C1170008C1170008C1170008C117000890
:1000F000C1170008C1170008C1170008C117000880
:10010000C1170008C1170008C1170008C11700086F
:10011000C1170008C1170008C1170008C11700085F
:10012000C1170008C1170008C1170008C11700084F
:10013000C1170008C1170008C1170008C11700083F
:10014000C1170008C1170008C1170008C11700082F
:10015000C1170008C1170008C1170008C11700081F
:10016000000000000000000000000000000000008F
:10017000000000000000000000000000000000007F
:1001800072B6254880F3098824484EF60851CEF20D
:1001900000010860022080F31488BFF36F8F01F024
:1001A000BFFD01F0DDFC1E481E491F4A91423CBFC5
:1001B00041F8040BFAE71D49174A91423CBF41F848
:1001C000040BFAE71A491B4A1B4B9A423EBF51F8EF
:1001D000040B42F8040BF8E700201849184A914232
:1001E0003CBF41F8040BFAE701F05AFD01F090FD25
:1001F000144C154DAC4203DA54F8041B8847F9E758
:1002000002F07EF9114C124DAC4203DA54F8041B93
:100210008847F9E701F074BD0008002000000008DD
:100220005555555500000020000400200004002012
:10023000B830000800080020000800200008002056
:10024000A80D00208001000880010008800100083E
:10025000800100082DE9F04FC1F80CD0C3689D461D
:10026000BDE8F08F002383F311882846A0470020C3
:1002700001F0C6FC01F0F4FC00DFFEE781F0004174
:1002800002E000BF83F0004330B54FEA41044FEA7B
:10029000430594EA050F08BF90EA020F1FBF54EA16
:1002A000000C55EA020C7FEA645C7FEA655C00F0B2
:1002B000E2804FEA5454D4EB5555B8BF6D420CDD83
:1002C0002C4480EA020281EA030382EA000083EA06
:1002D000010180EA020281EA0303362D88BF30BDA6
:1002E00011F0004F4FEA01314FF4801C4CEA1131FC
:1002F00002D0404261EB410113F0004F4FEA03335B
:100300004CEA133302D0524263EB430394EA050FE5
:1003100000F0A780A4F10104D5F1200E0DDB02FA54
:100320000EFC22FA05F2801841F1000103FA0EF2E8
:10033000801843FA05F359410EE0A5F120050EF1AE
:10034000200E012A03FA0EFC28BF4CF0020C43FADF
:1003500005F3C01851EBE37101F0004507D54FF0EC
:10036000000EDCF1000C7EEB00006EEB0101B1F53C
:10037000801F1BD3B1F5001F0CD349085FEA300082
:100380004FEA3C0C04F101044FEA445212F5800F8D
:1003900080F09A80BCF1004F08BF5FEA500C50F12A
:1003A000000041EB045141EA050130BD5FEA4C0C0D
:1003B000404141EB010111F4801FA4F10104E9D196
:1003C00091F0000F04BF01460020B1FA81F308BF8D
:1003D0002033A3F10B03B3F120020CDA0C3208DD59
:1003E00002F1140CC2F10C0201FA0CF021FA02F134
:1003F0000CE002F11402D8BFC2F1200C01FA02F1A4
:1004000020FA0CFCDCBF41EA0C019040E41AA2BFC8
:1004100001EB0451294330BD6FEA04041F3C1CDA90
:100420000C340EDC04F11404C4F1200220FA04F0B0
:1004300001FA02F340EA030021FA04F345EA03015A
:1004400030BDC4F10C04C4F1200220FA02F001FA1C
:1004500004F340EA0300294630BD21FA04F029469E
:1004600030BD94F0000F83F4801306BF81F4801137
:100470000134013D4EE77FEA645C18BF7FEA655CAA
:1004800029D094EA050F08BF90EA020F05D054EA7C
:10049000000C04BF1946104630BD91EA030F1EBF81
:1004A0000021002030BD5FEA545C05D14000494185
:1004B00028BF41F0004130BD14F580043CBF01F578
:1004C000801130BD01F0004545F0FE4141F470015E
:1004D0004FF0000030BD7FEA645C1ABF1946104639
:1004E0007FEA655C1CBF0B46024650EA013406BF3A
:1004F00052EA033591EA030F41F4002130BD00BFF9
:1005000090F0000F04BF0021704730B54FF48064B5
:1005100004F132044FF000054FF0000150E700BF36
:1005200090F0000F04BF0021704730B54FF4806495
:1005300004F1320410F0004548BF40424FF0000182
:100540003EE700BF42004FEAE2014FEA31014FEAC5
:1005500002701FBF12F07F4393F07F4F81F0605114
:10056000704792F0000F14BF93F07F4F704730B583
:100570004FF4607401F0004521F0004120E700BF16
:1005800050EA010208BF704730B54FF000050AE09D
:1005900050EA010208BF704730B511F0004502D59E
:1005A000404261EB41014FF4806404F132045FEAA0
:1005B000915C3FF4DCAE4FF003025FEADC0C18BF45
:1005C00003325FEADC0C18BF033202EBDC02C2F13B
:1005D000200300FA03FC20FA02F001FA03FE40EACD
:1005E0000E0021FA02F11444C1E600BF70B54FF0CD
:1005F000FF0C4CF4E06C1CEA11541DBF1CEA1355AF
:1006000094EA0C0F95EA0C0F00F0DEF82C4481EA16
:10061000030621EA4C5123EA4C5350EA013518BF36
:1006200052EA033541F4801143F4801338D0A0FB23
:1006300002CE4FF00005E1FB02E506F00042E0FBD0
:1006400003E54FF00006E1FB03569CF0000F18BFD6
:100650004EF0010EA4F1FF04B6F5007F64F540747E
:1006600004D25FEA4E0E6D4146EB060642EAC62111
:1006700041EA55514FEAC52040EA5E504FEACE2E7E
:10068000B4F1FD0C88BFBCF5E06F1ED8BEF1004F81
:1006900008BF5FEA500E50F1000041EB045170BDFD
:1006A00006F0004646EA010140EA020081EA030141
:1006B000B4EB5C04C2BFD4EB0C0541EA045170BD3D
:1006C00041F480114FF0000E013C00F3AB8014F1B7
:1006D000360FDEBF002001F0004170BDC4F1000400
:1006E000203C35DA0C341BDC04F11404C4F1200581
:1006F00000FA05F320FA04F001FA05F240EA0200DC
:1007000001F0004221F0004110EBD37021FA04F611
:1007100042EB06015EEA430E08BF20EAD37070BDCB
:10072000C4F10C04C4F1200500FA04F320FA05F02A
:1007300001FA04F240EA020001F0004110EBD3702C
:1007400041F100015EEA430E08BF20EAD37070BD9C
:10075000C4F1200500FA05F24EEA020E20FA04F375
:1007600001FA05F243EA020321FA04F001F0004124
:1007700021FA04F220EA020000EBD3705EEA430E95
:1007800008BF20EAD37070BD94F0000F0FD101F0C4
:100790000046400041EB010111F4801F08BF013CFD
:1007A000F7D041EA060195F0000F18BF704703F03B
:1007B0000046520043EB030313F4801F08BF013DC2
:1007C000F7D043EA0603704794EA0C0F0CEA13557E
:1007D00018BF95EA0C0F0CD050EA410618BF52EA38
:1007E0004306D1D181EA030101F000414FF000003E
:1007F00070BD50EA410606BF1046194652EA43064C
:1008000019D094EA0C0F02D150EA013613D195EABF
:100810000C0F05D152EA03361CBF104619460AD107
:1008200081EA030101F0004141F0FE4141F4700111
:100830004FF0000070BD41F0FE4141F4780170BD01
:1008400070B54FF0FF0C4CF4E06C1CEA11541DBF66
:100850001CEA135594EA0C0F95EA0C0F00F0A7F868
:10086000A4EB050481EA030E52EA03354FEA013195
:1008700000F088804FEA03334FF0805545EA1313A8
:1008800043EA12634FEA022245EA111545EA106570
:100890004FEA00260EF000419D4208BF964244F107
:1008A000FD0404F5407402D25B084FEA3202B61A26
:1008B00065EB03055B084FEA32024FF480104FF4FA
:1008C000002CB6EB020E75EB030E22BFB61A75466E
:1008D00040EA0C005B084FEA3202B6EB020E75EB01
:1008E000030E22BFB61A754640EA5C005B084FEA69
:1008F0003202B6EB020E75EB030E22BFB61A754636
:1009000040EA9C005B084FEA3202B6EB020E75EB40
:10091000030E22BFB61A754640EADC0055EA060E01
:1009200018D04FEA051545EA16754FEA06164FEA44
:10093000C30343EA52734FEAC2025FEA1C1CC0D1F0
:1009400011F4801F0BD141EA00014FF000004FF07D
:10095000004CB6E711F4801F04BF01430020B4F13E
:10096000FD0C88BFBCF5E06F3FF6AFAEB5EB030CF6
:1009700004BFB6EB020C5FEA500C50F1000041EBF3
:10098000045170BD0EF0004E4EEA113114EB5C04C0
:10099000C2BFD4EB0C0541EA045170BD41F4801193
:1009A0004FF0000E013C90E645EA060E8DE60CEA9B
:1009B000135594EA0C0F08BF95EA0C0F3FF43BAFB8
:1009C00094EA0C0F0AD150EA01347FF434AF95EA6F
:1009D0000C0F7FF425AF104619462CE795EA0C0F53
:1009E00006D152EA03353FF4FDAE1046194622E720
:1009F00050EA410618BF52EA43067FF4C5AE50EAFA
:100A000041047FF40DAF52EA43057FF4EBAE12E7E9
:100A10004FEA410212F5001215D211D56FF4787326
:100A2000B3EB625212D94FEAC12343F0004343EAC9
:100A3000505311F0004F23FA02F018BF40427047A4
:100A40004FF00000704750EA013005D111F000402E
:100A500008BF6FF0004070474FF00000704700BFC4
:100A60004FEA4102B2F1E04324BFB3F5001CDCF1D0
:100A7000FE5C0DD901F0004C4FEAC0024CEA507008
:100A8000B2F1004F40EB830008BF20F00100704737
:100A900011F0804F21D113F13872BCBF01F000403A
:100AA000704741F480114FEA5252C2F11802C2F16C
:100AB000200C10FA0CF320FA02F018BF40F00100ED
:100AC0004FEAC1234FEAD32303FA0CFC40EA0C009F
:100AD00023FA02F34FEA4303CCE77FEA625307D1DC
:100AE00050EA01331EBF4FF0FE4040F44000704713
:100AF00001F0004040F0FE4040F40000704700BFAD
:100B000080F0004002E000BF81F0004142001FBFC2
:100B10005FEA410392EA030F7FEA226C7FEA236CCB
:100B20006AD04FEA1262D2EB1363C1BFD2184140C0
:100B300048404140B8BF5B42192B88BF704710F056
:100B4000004F40F4000020F07F4018BF404211F0F9
:100B5000004F41F4000121F07F4118BF494292EA61
:100B6000030F3FD0A2F1010241FA03FC10EB0C008D
:100B7000C3F1200301FA03F100F0004302D549421A
:100B800060EB4000B0F5000F13D3B0F1807F06D3C7
:100B900040084FEA310102F10102FE2A51D2B1F1BF
:100BA000004F40EBC25008BF20F0010040EA0300B4
:100BB0007047490040EB000010F4000FA2F1010261
:100BC000EDD1B0FA80FCACF1080CB2EB0C0200FAEB
:100BD0000CF0AABF00EBC25052421843BCBFD04039
:100BE0001843704792F0000F81F4000106BF80F4B3
:100BF00000000132013BB5E74FEA41037FEA226C76
:100C000018BF7FEA236C21D092EA030F04D092F040
:100C1000000F08BF0846704790EA010F1CBF002074
:100C2000704712F07F4F04D1400028BF40F00040D1
:100C3000704712F100723CBF00F50000704700F0F1
:100C4000004343F0FE4040F4000070477FEA226218
:100C500016BF08467FEA23630146420206BF5FEAE9
:100C6000412390EA010F40F4800070474FF00003E9
:100C700004E000BF10F0004348BF40425FEA000CB0
:100C800008BF704743F0964301464FF000001CE058
:100C900050EA010208BF70474FF000030AE000BFAE
:100CA00050EA010208BF704711F0004302D54042EC
:100CB00061EB41015FEA010C02BF8446014600205E
:100CC00043F0B64308BFA3F18053A3F50003BCFA79
:100CD0008CF2083AA3EBC25310DB01FA02FC634426
:100CE00000FA02FCC2F12002BCF1004F20FA02F22D
:100CF00043EB020008BF20F00100704702F1200220
:100D000001FA02FCC2F1200250EA4C0021FA02F280
:100D100043EB020008BF20EADC7070474FF0FF0C85
:100D20001CEAD0521EBF1CEAD15392EA0C0F93EA80
:100D30000C0F6FD01A4480EA010C400218BF5FEA22
:100D400041211ED04FF0006343EA501043EA511195
:100D5000A0FB01310CF00040B1F5000F3EBF49008F
:100D600041EAD3715B0040EA010062F17F02FD2A93
:100D70001DD8B3F1004F40EBC25008BF20F0010076
:100D8000704790F0000F0CF0004C08BF49024CEA8D
:100D9000502040EA51207F3AC2BFD2F1FF0340EA1F
:100DA000C250704740F400004FF00003013A5DDC90
:100DB00012F1190FDCBF00F000407047C2F10002D1
:100DC000410021FA02F1C2F1200200FA02FC5FEABE
:100DD000310040F1000053EA4C0308BF20EADC7008
:100DE000704792F0000F00F0004C02BF400010F47A
:100DF000000F013AF9D040EA0C0093F0000F01F027
:100E0000004C02BF490011F4000F013BF9D041EA48
:100E10000C018FE70CEAD15392EA0C0F18BF93EA4A
:100E20000C0F0AD030F0004C18BF31F0004CD8D174
:100E300080EA010000F00040704790F0000F17BFFB
:100E400090F0004F084691F0000F91F0004F14D041
:100E500092EA0C0F01D142020FD193EA0C0F03D199
:100E60004B0218BF084608D180EA010000F000409C
:100E700040F0FE4040F40000704740F0FE4040F477
:100E8000400070474FF0FF0C1CEAD0521EBF1CEA16
:100E9000D15392EA0C0F93EA0C0F69D0A2EB030234
:100EA00080EA010C49024FEA402037D04FF08053CE
:100EB00043EA111143EA10130CF000408B4238BF93
:100EC0005B0042F17D024FF4000C8B4224BF5B1AA1
:100ED00040EA0C00B3EB510F24BFA3EB510340EAEF
:100EE0005C00B3EB910F24BFA3EB910340EA9C009D
:100EF000B3EBD10F24BFA3EBD10340EADC001B010D
:100F000018BF5FEA1C1CE0D1FD2A3FF650AF8B42B0
:100F100040EBC25008BF20F0010070470CF0004CBD
:100F20004CEA50207F32C2BFD2F1FF0340EAC250E8
:100F3000704740F400004FF00003013A37E792F0A9
:100F4000000F00F0004C02BF400010F4000F013A07
:100F5000F9D040EA0C0093F0000F01F0004C02BF02
:100F6000490011F4000F013BF9D041EA0C0195E76B
:100F70000CEAD15392EA0C0F08D142027FF47DAF04
:100F800093EA0C0F7FF470AF084676E793EA0C0FF4
:100F900004D14B023FF44CAF08466EE730F0004CF2
:100FA00018BF31F0004CCAD130F000427FF45CAF82
:100FB00031F000437FF43CAF5FE700BF4FF0FF3CF0
:100FC00006E000BF4FF0010C02E000BF4FF0010C43
:100FD0004DF804CD4FEA40024FEA41037FEA226C0C
:100FE00018BF7FEA236C11D001B052EA530C18BF2E
:100FF00090EA010F58BFB2EB030088BFC81738BF93
:101000006FEAE17018BF40F0010070477FEA226C80
:1010100002D15FEA402C05D17FEA236CE4D15FEA7C
:10102000412CE1D05DF8040B704700BF84460846B0
:101030006146FFE70FB5FFF7C9FF002848BF10F171
:10104000000F0FBD4DF808EDFFF7F4FF0CBF0120B6
:1010500000205DF808FB00BF4DF808EDFFF7EAFF40
:1010600034BF012000205DF808FB00BF4DF808EDFB
:10107000FFF7E0FF94BF012000205DF808FB00BFF0
:101080004DF808EDFFF7D2FF94BF012000205DF876
:1010900008FB00BF4DF808EDFFF7C8FF34BF012083
:1010A00000205DF808FB00BF4FEA4002B2F1FE4F9E
:1010B0000FD34FF09E03B3EB12620DD94FEA00231A
:1010C00043F0004310F0004F23FA02F018BF4042F3
:1010D00070474FF00000704712F1610F01D14202DA
:1010E00005D110F0004008BF6FF0004070474FF08E
:1010F000000070478307F0B448D0541E002A43D044
:10110000CDB2034602E0002C3ED0144603F8015B4A
:1011100013F0030F04F1FF32F5D1032C2DD9CDB21A
:101120000F2C45EA052545EA054518D9A4F1100715
:1011300003F110061A463F0906EB07161560103238
:1011400042F80C5C42F8085C42F8045CB242F5D10B
:1011500004F00F040137032C03EB07130DD91E46CF
:101160002246043A46F8045B032AFAD8221F04F008
:10117000030422F00302043213442CB1C9B21C440C
:1011800003F8011BA342FBD1F0BC70471446034691
:10119000C3E700BF000000000000000000000000E6
:1011A00010B4202383F3118890F82030072B0ED839
:1011B000DFE803F02B0D0D2708040D08436A9A6839
:1011C00001329A6090E80C001A60026853604FF098
:1011D000FF34002240F62C538168446280F82020BE
:1011E000C2F200031B689A688A42FBD25A68002147
:1011F000036042601060586081F311885DF8044B11
:101200007047436A00221A60E1E7002383F31188E4
:101210005DF8044B704700BFAFF30080AFF3008070
:101220004FF40063C4F2010340225A61704700BFCB
:10123000F0B4002B08BF0B4600F10B0700F10A05C4
:10124000B1FBF2F602FB161101F13004392CC8BFD4
:1012500001F13704E4B2B3FBF2F331462E4605F850
:101260000149002BECD1BA1B3346024401E013F8CC
:10127000014F00F8014B9042F9D1F0BC704700BF1C
:101280004FF49043C4F20003DA6842F08002DA605F
:10129000704700BFAFF30080AFF30080AFF3008072
:1012A0004FF48843C4F20003DA6842F08002DA6047
:1012B000704700BFAFF30080AFF30080AFF3008052
:1012C000202383F311884FF46D43CEF200035B6853
:1012D00013F4006302D183F311887047EFF309829E
:1012E0004FF0807342F8043CA2F1200383F3098895
:1012F00040F62C53C2F2000319689B6989689B6809
:1013000099428BBF40F2752340F27823C0F6000368
:10131000C0F6000342F8083C704700BFAFF30080FE
:101320004FF080431A692DE9F041920703D4BDE8DC
:10133000F041FFF7C5BF00221A61202383F3118813
:1013400040F62C544FF08045C2F200046A6AE08CEB
:10135000E36992B2161A1989B6B28E4204F11C07DB
:1013600024BF4FF0000820261CD31A680144BA425B
:10137000E184D9685760E261C3F80C8008BFC5F802
:101380000C8088F311881869884786F311886A6A87
:10139000E08CE36992B2C0EB020C19891FFA8CFC55
:1013A0006145E2D9BB420AD00144891A89B20129B8
:1013B00098BF02210A4492B24FF080435A6300233F
:1013C00083F31188BDE8F041FFF77ABFAFF30080E7
:1013D00008B540F6A833C2F200031878DA68002195
:1013E0000428116107D10220187011601161D168C1
:1013F00021F0FF01D1605B6840F6A8305B68C2F263
:1014000000009847BDE80840FFF75ABFAFF30080DF
:1014100038B540F60004C2F20004E3686268186957
:10142000DD68117D0540E8B2C0431861A9B96907BC
:1014300002D52378042B2BD0AA0719D4E90708D5A5
:10144000636840F600001B69C2F20000984703235E
:101450002370BDE83840FFF733BFAB0706D52378CC
:10146000042B03D193680BB1204698476807E5D554
:10147000237840F60000042BC2F2000002D00423BF
:101480002370DBE74368DB68002BF8D09847F6E76A
:101490009368002BD0D020469847CDE7AFF300806B
:1014A000EFF30983203383F30988002383F3118842
:1014B000704700BFAFF30080AFF30080AFF3008050
:1014C00030B4202383F3118840F6A053C2F2000306
:1014D0001C6840F62452013CC2F200020C444D1E2E
:1014E00012684942054404EA0100121A2940914257
:1014F0009ABF091819600020002383F3118830BCBB
:10150000704700BFAFF30080AFF30080AFF30080FF
:10151000002240F62C53816810B4C2F20003044646
:1015200080F820201B689A688A42FBD25A682046BD
:101530002360626014605C605DF8044B704700BF1C
:10154000F8B504680746A0420D4620D0002602E008
:101550002468A7421BD0E3682B43E36015B12269DE
:101560001342F5D06068A268416B90F820300A43BE
:101570000A2B42630CD00B2BEAD1436A1A409342E8
:10158000E6D14662FFF7C4FF2468A742E3D1F8BD65
:10159000436A1A42DCD04662FFF7BAFFF4E700BFA5
:1015A0002DE9F047D0F854610546D6F80C90336821
:1015B00082B0D8059CB200F18980202383F3118882
:1015C00014F02F0F50D005F1040C05F10C074FF06B
:1015D000000809E0A206736895F858A11FD4346882
:1015E000A4B214F02F0F3FD02107F3D014F0080F4E
:1015F00014BF80210021E20748BF41F02001A3076A
:1016000048BF41F04001600748BF41F48071604627
:10161000FFF796FFA206736895F858A1DFD56A69AF
:10162000002A40D02A6A696A8A4246D068690AEA72
:101630000303511C01302962686113702A6AEB6947
:101640009A4201D3AB692B62EB689F42C7D01A68FC
:101650001846EA605760C3F82480FFF759FF3468E2
:10166000A4B214F02F0FBFD1002383F3118819F017
:10167000800F01D0270638D4600611D5202383F3CC
:1016800011886A6CAB6C9A4255D04FF6BF7309EA69
:1016900003036FF04002F3600023326083F311888C
:1016A00002B0BDE8F087042160460193FFF748FFD0
:1016B0002A6A696A019B8A42B8D169690029B5D052
:1016C00060464FF48061FFF73BFF88E7202383F3F8
:1016D00011884FF40071281DFFF732FF6FF48073FB
:1016E0003360002383F3118867E7202383F3118895
:1016F000AB6C6A6C9A4226D0A86B296C5A1C0130DC
:10170000A863AA648A421F7801D3EB6BAB642B6B8E
:1017100005F130029A4209D019684FF0000E296392
:1017200018464A60C3F824E0FFF7F2FE7760002312
:1017300083F31188A0E7AB6B002BA6D0281D1021E6
:10174000FFF7FEFEA1E7AA6B002AD5D0281D0821CD
:10175000FFF7F6FE4FF63F7309EA030343F0400339
:10176000F360E4E7AFF30080AFF30080AFF30080F5
:1017700008B540F64C20C2F20000FFF711FFBDE8AB
:101780000840FFF79DBD00BFAFF30080AFF30080BE
:1017900008B540F6F000C2F20000FFF701FFBDE817
:1017A0000840FFF78DBD00BFAFF30080AFF30080AE
:1017B000FEE700BFAFF30080AFF30080AFF300801F
:1017C000FEE700BFAFF30080AFF30080AFF300800F
:1017D00040F62C53C2F2000330B41A6899691468B9
:1017E000012581F82000636082F820501C601046BB
:1017F00030BC9A61FEF72EBDAFF30080AFF30080DE
:10180000F0B54FF6FF73994287B0074660D040F6B7
:101810002C54C2F2000425464FF0804055F81C3F7E
:10182000D0F824C041F2A112A669C0F60002012935
:1018300098BF0221AB4205961FFA8CFC049275D02A
:10184000B4F826E0CEEB0C068A1992B2B24219899E
:1018500039DB8A423EBF02EB0E06B6B246638A42CD
:1018600005D91B68521A198992B29142F9D3596865
:1018700001AE029101930E605E60ADF80C201889F4
:101880004FF6FF71821A1A81A1843846FFF7A0FF34
:10189000049BA3B1E26940F62C53B242C2F20003AA
:1018A00020D0029A019B00211360019BAB425A6039
:1018B000049104D0BDF80C101A890A441A81A36956
:1018C000586A07B0F0BD1B68521A92B21989C6E770
:1018D000FFF77EFF40F62C54C2F20004A369586A59
:1018E00007B0F0BD019A0021AA42DA6108BF4FF0AB
:1018F00080435560049108BFD960E0D04FF080412B
:10190000486ADD8CBDF80C60138980B2451B3344F6
:101910009BB2ADB2AB421381D1D95B1B9BB2012B01
:1019200098BF022303449BB24B63C8E701EB0C0E44
:1019300001AE1FFA8EFE00220223A4F826C00195F4
:101940000295ADF80C10E6612662C0F834E0026141
:10195000C3609AE7AFF30080AFF30080AFF300807D
:1019600010B4024671B140F62C53C2F20003446831
:101970009B69042083E81400236053605DF8044BE6
:10198000FFF73EBF4FF0FF305DF8044B704700BFDC
:1019900070B5202304460E4683F3118803E0FFF759
:1019A000DFFF00281BDBA56820463146002DF6D05E
:1019B000A2692169531CA0688B42A36100F1FF302A
:1019C00028BFE368A060157828BFA361E3690BB165
:1019D00020469847002383F31188284670BD85F37D
:1019E000118870BDAFF30080AFF30080AFF30080CB
:1019F0000C30FFF7CDBF00BFAFF30080AFF3008026
:101A00000C304FF6FF71FFF7C3BF00BFAFF300808C
:101A1000F8B504460F461646202383F3118803E0E9
:101A2000FFF79EFF00281ADBA56820463146002DEF
:101A3000F6D06369A1685A1C01396261A1601F7008
:101A4000236962699A4224BFE3686361E3690BB169
:101A500020469847002383F311880020F8BD85F3C2
:101A60001188F8BDAFF30080AFF30080AFF30080C2
:101A70003030FFF7CDBF00BFAFF30080AFF3008081
:101A800030304FF6FF72FFF7C3BF00BFAFF30080E7
:101A90002DE9F04F984683B0044689461546C7693C
:101AA000202383F311884FF080435A6A08F1FF3BEB
:101AB0004244002692B201921FFA8BFBB246A36801
:101AC000FBB16369A1685A1C01396261A16099F890
:101AD000002009F101091A70236962699A4224BF42
:101AE000E36863610FB12046B8478AF31188013D6E
:101AF00006F1010619D0202383F31188A368002B77
:101B0000DFD14FF6FD72934513D84FF08042516AF2
:101B1000019A511A89B2884505D32046FFF720FF64
:101B20000028CCD0002383F31188304603B0BDE8F1
:101B3000F08F20464146FFF713FF0028BFD0F1E7A2
:101B40003030FFF7A5BF00BFAFF30080AFF30080D8
:101B500030304FF6FF73FFF79BBF00BFAFF300803D
:101B60004FF48053C4F202031A68194642F001028E
:101B70001A600A684FF480539207C4F20203F8D542
:101B80001968002201F0F901196019465A604A6883
:101B90004FF4805312F00C0FC4F20203F7D11A680D
:101BA000194642F480321A600A684FF48053900359
:101BB000C4F20203F8D55A68194642F480325A60DA
:101BC0001A6842F080721A600A684FF480539201DA
:101BD000C4F20203F8D54FF40052C4F202021021FD
:101BE0004FF480305860116059681A4641F0020184
:101BF0005960536803F00C03082BFAD1704700BFFB
:101C000038B50246202383F3118840F62C53C2F2E4
:101C100000039C69A06A04F12805A842626206D00C
:101C20000368A362FFF774FCA06AA842F8D194F895
:101C300022304BB994F82130990701BF22696369BA
:101C40001A61226908BF53610F20BDE83840FFF7D1
:101C5000BFBD00BFAFF30080AFF30080AFF30080E3
:101C600040F62C52C2F20002106870B40368956905
:101C700001260021AC6813605A6080F820609061F2
:101C800085F8201000E01B689A68A242FBD85A68C9
:101C900029462B606A6015605D6070BCFEF7DABA99
:101CA000F0B4134E002506F17007A6F110011AC911
:101CB000A3420DD204391A4651F8040F42F8040B1E
:101CC000A242F9D3DA43144424F003040434234435
:101CD00056F8042C934203D243F8045B9342FBD39F
:101CE000BE4206F1100301D21E46DEE7F0BC70478B
:101CF0004C2F0008AFF30080AFF30080AFF30080FB
:101D0000FEE700BFAFF30080AFF30080AFF30080C9
:101D1000704700BFAFF30080AFF30080AFF30080E7
:101D2000704700BFAFF30080AFF30080AFF30080D7
:101D300070B4202383F3118842F6C863027AC0F698
:101D40000003002908BF1946012A2DD00C684FF462
:101D50005852CE880D89D0F854318988C0F26E125D
:101D6000B2FBF4F29A6046F0400641F4045245F0AA
:101D70000105B6B2ADB242F02C0200241E6101F49E
:101D8000A0515D61DA601C601A68B1F5806F5B6814
:101D90000CBF7F23FF2380F85831022303720023F6
:101DA00083F3118870BC704740F6F003C2F2000361
:101DB000984219D040F64C23C2F200039842C5D194
:101DC0004FF48052C4F20202D6694FF46143CEF25E
:101DD0000003802446F48026C025D66183F827536B
:101DE000C3F884415C60B1E74FF48052C4F2020250
:101DF000D6694FF46143CEF20003402446F4003626
:101E0000C025D66183F82653C3F884415C609DE702
:101E100008B50146202383F311880820FFF7F0FC62
:101E2000002383F3118808BDAFF30080AFF3008077
:101E300008B540F62C53C2F200039A6942F6F463E7
:101E4000C0F600034FF4A05404259361C4F20104CA
:101E50002E46266142F21070FFF7DAFF656142F20A
:101E60001070FFF7D5FFF4E7AFF30080AFF3008009
:101E70002DE9F04F984683B0044689461546C76958
:101E8000202383F311884FF080435A6A08F1FF3B07
:101E9000424492B2002601921FFA8BFBA3680BB357
:101EA000A369A1685A1C0139A261A1601B7809F1DC
:101EB000010A89F800302369A2699A4224BFE368C5
:101EC000A3610FB12046B847002383F31188013D79
:101ED00006F101061AD0202282F31188A368D146A8
:101EE000002BDDD14FF6FD72934513D84FF08042A1
:101EF000516A019A511A89B2884505D32046FFF7E5
:101F00002FFD0028CAD0002383F31188304603B088
:101F1000BDE8F08F20464146FFF722FD0028BDD0E6
:101F2000F1E700BFAFF30080AFF30080AFF30080B4
:101F30000C30FFF79DBF00BFAFF30080AFF3008010
:101F40000C304FF6FF73FFF793BF00BFAFF3008075
:101F5000F0B440F62C57C2F20007D7F818C08568D5
:101F6000DCF808400023A542064643620DD880F8FD
:101F700020303B461B689A689542FBD95A6833600B
:101F8000726016605E60F0BC70478CF820303B4693
:101F90001B689A689442FBD95A680124CCF8003037
:101FA000CCF80420C2F800C0C3F804C086F8204072
:101FB0003046BE616146F0BCFEF74CB9AFF300801D
:101FC0004FF48053CEF200035B688360704700BF1C
:101FD0002DE9F00342F6D4630446C0F6000344F84A
:101FE000043B002700F1D40300F1540200F10C0679
:101FF00000F130054FF001094FF0800800F5AA7C90
:102000004761446080F808908762C0F83880C660F5
:10201000066105634563C062C1640065C0F840C0E5
:10202000826142620262C361C36383644364BDE848
:10203000F0037047AFF30080AFF30080AFF3008090
:102040000EB42DE9F04F92B00CAC0394039C0DF14B
:10205000310C1BABCDF808C0C4EB0C0C53F8046B6F
:10206000CDF81CC042F6187C40F64C2BC0F6000C94
:1020700000240B939A46C2F2000BCDF818C00494CA
:102080003178731CA1B1252918D0DDF810C0DBF818
:10209000002040F64C201E460CF1010C9268C2F262
:1020A0000000CDF810C090473178731C0029EAD1A8
:1020B000049812B0BDE8F04F03B070477278002466
:1020C0002D2A03BFB278B31C01270027302A03BF93
:1020D0005A780133302520251E4608E09AF8003052
:1020E0000AF1040A04EB8404327803EB4404A2F1FD
:1020F0003003DBB2092B06F10106F3D92A2AEDD011
:102100002E2A4FF000034BD002F0DF014C2956D1AC
:102110003178012011B101360A460120A2F14401B3
:10212000342900F25381DFE811F0B7005101510169
:1021300051015101B70051015101510151015101AA
:10214000B50051015101510151015101520051019C
:1021500051014F01510151015101510151015101F1
:1021600051015101510151014201B7005101EC00EF
:1021700051015101B700510151015101510151016A
:10218000B500510151015101C700510152005101E7
:1021900051014F019AF800100AF1040A01EB4003C3
:1021A00016F8012B03EB8300A2F13001C9B2092913
:1021B000F4D92A2AEED002F0DF014C29A8D0A2F1EE
:1021C0004100C0B219288CBF00200120A6E70A22D6
:1021D000DAF800100CA80AF1040A0023FFF728F827
:1021E000DDF80CC00CAACCEB000000F1FF39059221
:1021F000241A24EAE474FFB96442ECB1DDF814C097
:1022000040F64C289CF800102D2900F0E780C2F21F
:1022100000082746D8F8003040F64C209B68C2F2F0
:102220000000294698470137F4D1DDF810C0C4EB0F
:102230000C0CCDF810C03C46B9F1000F15DB059A27
:102240009046571EC844DBF8003017F8011F40F6CF
:102250004C209B68C2F2000098474745F3D1DDF857
:1022600010C00CF101034B440493002C3FF408AF61
:102270002746DBF8003040F64C209B68C2F2000095
:1022800029469847013FF4D1DDF810C0A444CDF8A9
:1022900010C0F5E608229BE7DAF800100A220029B0
:1022A000B8BF2D230AF1040ABDBF49428DF8303072
:1022B0000DF131000CA890E7DAF8000042F6FC625C
:1022C000C0F60002002808BF10460590007847F6C7
:1022D000FF720AF1040A002B08BF1346002800F021
:1022E000A180059A134402E0934200F08D8051785A
:1022F00001320029F8D1059B2025D01A00F1FF39C1
:1023000076E70AF1070A2AF0070ADAE900010193E1
:10231000FEF7A6FB00218146FEF79EFE0AF1080AA1
:10232000019B0DF13008002874D1DDF818C0013B85
:10233000082B28BF08235CF8233048460593FEF796
:10234000B3FE84460A22614640460023FEF770FF32
:102350002E23804608F8013B4846CDF804C0FEF71E
:10236000F1F8DDF804C0CDE908016046FEF7D8F8C1
:1023700002460B46DDE90801FDF784FFCDE90801BF
:102380000598FEF7BDF802460B46DDE90801FEF7A9
:102390002DF9FEF73DFB4CF6CD4301460598CCF6F2
:1023A000CC43A3FB00030A224046DB0816E7DAF819
:1023B000003007980CAA8DF830300AF1040A00F1B9
:1023C000FF392025059213E7102201E707980CAB8F
:1023D0008DF8302000F1FF39059309E7302D7FF4A7
:1023E00016AFDBF80030C2F2000840469B68984701
:1023F000059ADDF810C001320CF1010C0592CDF800
:1024000010C009F1FF3904E7059A2025981A00F158
:10241000FF39EDE62D2209F100498DF830200DF14C
:10242000310882E74FF0FF392025E1E6AFF3008065
:10243000026940F620531068C2F2000301301D28E3
:1024400010B5186006D840F628530022C2F20003E7
:102450001A6010BDFEF70AFC49F69A11C4F2AB31BE
:10246000FEF75CFC0021C4F2C821FEF757FC4FF4D4
:10247000A041C4F64301FEF705FD40F6285240F6A0
:10248000A453C2F20002C2F20003012110601960DD
:10249000FEF758F8BDE8104002460B4640F64C20C7
:1024A00042F60471C2F20000C0F60001FFF7C8BD99
:1024B0004FF48052CEF2000240F62C535168C2F223
:1024C0000003826830B41C6F891AC368091B5D1C45
:1024D000D0E904235218446843F10003C0E90423FF
:1024E0000368A14288BF41609942C560816038BFDE
:1024F000016030BC704700BFAFF30080AFF30080D5
:102500004FF480550026C4F202054FF0FF302B69CE
:102510002DE9804828612E61EB68E860EE60EA6989
:102520004FF4E04342F08052EA61EA69C4F20003EA
:1025300042F00062EA611A68ADB042F480721A603B
:10254000A9694FF4006341F07D0744F68331C4F27A
:10255000B331019148F68801CBF2B341029144F6C0
:102560004331C8F68801039148F64401C8F6880152
:1025700004914FF43051C4F201010591C4F20103FA
:10258000AF614FF0FF37DF6048F2B848019FC8F6EF
:1025900088084FF44060C3F80480C4F201001F6053
:1025A000029F4FF0FF33C3604FF0883347604FF412
:1025B000805E0360039BC4F2010E6FF44078CEF896
:1025C0000C804FF4A052CEF804304FF08833CEF890
:1025D0000030C4F201024FF0FF33D3604FF0883374
:1025E0005360049B4FF4C05C1360C4F2010C4FF0C5
:1025F000FF3240F6F00ACCF80C204FF08833059AF1
:10260000C2F2000A40F6A83B40F600044FF480698D
:1026100041F2A121CCF804300127CCF80030C2F2FD
:10262000000BC2F200045046C4F20009C0F60001DB
:1026300040F64C28CBF80C20C2F200088BF8007052
:102640002770C4F80C90CBF804606660FFF7C0FCFC
:102650004FF4884341F28121C4F200034046C0F6A2
:102660000001CAF85431FFF7B3FC3346C4F201034A
:1026700059684FF49042C4F2000241F01001C8F8CA
:1026800054215960EB694FF400513B43EB61CEF2AA
:1026900004014B6840F65F1043F4006C4FF6FF797D
:1026A0004FF080434FF4614240F62C55C2F20005D2
:1026B000C1F804C04FF0805E9862CEF20002C3F809
:1026C0002C904FF080089E615E63DE605E605F610B
:1026D0001F604FF0FF3382F81C8305F11C01C2F824
:1026E00080E10CA8C2F800E000220C93AB842D60BE
:1026F00000236D60CDE91023E9612962AE60EE84AC
:102700002E670D960E960F962D616D61FFF758FCA2
:102710000CA8FFF7CDFE40F6005342F6BC70C2F2A3
:102720000003D5F814C00E99C0F6000003F1100E96
:1027300068644FF46D4205F12C00C5F8348085F8CB
:102740004D60C5F868802E662967CEF200026E667D
:1027500085F84E70C5F840C09E619E60DE60C3F88B
:1027600010E0C3F814E0ED63CCF8100085F84C706D
:10277000D7684FF6FF004FF440713840C0F2FA516D
:10278000014341F2C14840F6A05740F62450C0F63C
:102790000008C2F20007C2F200000297039005F1A0
:1027A0002C07C3F8008005F154036F61AF616B65BE
:1027B000029F039B40F6A85942F2000E4EF6F050DD
:1027C00005F1580CCEF20000C2F20009C2F2000E70
:1027D000AE64C5F858C0C5F85CC0C3F800E0C7F8DF
:1027E0000090D160C1684FF4805341F08071C160A6
:1027F000CEF200031D68102045F0010520211D6068
:10280000D07782F8221086F3118862B6202383F3F2
:10281000118840F62C52C2F2000240F6180340F232
:10282000652742F6F476C2F20003D2F81480C0F6AF
:102830000007C0F6000641F2B17E03F190010025C9
:102840000120C3F88C70C3F8A86003F16C0C03F18D
:10285000BC06C0F6000E03F1B8074FF00209C3F83A
:102860009800C3F8CC0083F8B200C3F8A480C3F882
:10287000AC30C3F8A020C3F89CC0C3F86CE083F868
:10288000B0901D6783F8B150C3F8C850C3F8C45066
:102890000846C8F81010C3F8B870C3F8BC60C3F895
:1028A000C0605161FFF754FB85F311880023C4F227
:1028B00001035A6840F64C2042F010025A6006AEFE
:1028C000C2F200000021FFF733FA019642F63063AE
:1028D000DDF804E0C0F6000303F118070CAE0FCBDF
:1028E0008EE80F0097E80300782286E80300294667
:1028F0000EA80A950B95FEF7FDFB46F2A810FFF710
:1029000087FA202383F3118840F62C5240F6B8331F
:1029100040F26526C2F20003C2F20002C0F60006D1
:1029200041F63167D2F814C0C3F8FC60C0F6000766
:102930004FF0020642F6FC7003F58071C3F8DC70BC
:1029400083F8206103F1DC0903F596764FF0010E60
:102950004FF0810803F59477C0F60000C3F8180122
:10296000C3F814C1C3F81C31C3F81021C3F80C918B
:1029700083F822E1C3F8E05083F82151C3F83851BD
:10298000C3F83451C3F80881C3F83C810846CCF839
:102990001010C3F82871C3F82C61C3F8306151617D
:1029A000FFF7D6FA85F3118840F6F00042F6D471AD
:1029B000C2F20000C0F60001FFF7BAF90CA90AF153
:1029C0000C00802244F62063FFF752FA4DF6836331
:1029D000C4F21B3343F2A80042F6D87140F62052ED
:1029E00040F6285740F6A45840F6A8394FF4006640
:1029F000C0F60000C0F60001C2F200020593534683
:102A00000125DA4602900391C2F20007C2F20008E3
:102A10000492C2F20009C4F201069B4680E043F230
:102A20002001C2F20000C0F600010022FFF708FBFF
:102A3000DBF8003040F6F0005B6944F62061C2F23A
:102A40000000984743F23401034640F64C20C0F69C
:102A500000015122C2F200000093FFF7F1FA009B3F
:102A60004EF24022C0F2010240F64C2043F24401F3
:102A7000B3F1FF3F18BF1A46C0F60001C2F20000D2
:102A8000FFF7DEFADDF810E040F64C2043F24C018F
:102A9000DEF80020C0F60001C2F20000FFF7D0FA15
:102AA00040F64C2043F25801C0F6000106AAC2F2DB
:102AB0000000FFF7C5FA40F64C2043F264010CAA6F
:102AC000C0F60001C2F20000FFF7BAFA3868FDF75D
:102AD00039FD0B46024643F2700140F64C20C0F629
:102AE0000001C2F20000FFF7ABFA40F64C2043F2BF
:102AF0008001C0F60001D8F80020C2F20000FFF704
:102B00009FFA40F64C2043F28C01C2F20000C0F65E
:102B100000010122FFF794FA41F28830FFF778F9BB
:102B2000202383F311889AF800300298012BCAF809
:102B3000040000F02D81D9F808000599A1FB0010D0
:102B4000400C013880B2DAF80C2000230221136017
:102B500053608AF8001090621361D36083F3118888
:102B6000202383F311882378039840F60002012B79
:102B70006060C2F2000200F03481D36891680022E4
:102B80001A605A639A635A6245F6C522C0F67C22DF
:102B90004909A2FB01E1C909002201394FF6FF7E74
:102BA0001A614FF48170DA609962C3F82CE06421F5
:102BB0004FF0130E9861996003F1340003F138016E
:102BC000C3F820E0022320616161237082F3118841
:102BD0004023012240F64C2043F204013261C0F64A
:102BE000000173610022C2F200000093FFF728FA8F
:102BF000009B3361202383F31188DAF80420DAF88C
:102C00000C3051684FF0040E00220A20D8628AF876
:102C100000E05D615A621A6119B1DA6842F001029E
:102C2000DA6085221A60002383F311884FF0000ECA
:102C30002023C7F800E083F31188E3680022596974
:102C4000052041F00101596103211A6118602170CA
:102C500082F31188202383F3118840F60004C2F226
:102C60000004E268D36813F0FF0010D161681061BE
:102C7000087D002840F0AE808868002800F0D280EF
:102C800043F00603096909B143F00103D36000234F
:102C900083F311884FF47A70FFF7BAF840F64C20AE
:102CA00043F21001C0F600010022C2F20000FFF75B
:102CB000C7F9202383F311889AF80030022B17D12B
:102CC000D9F80C2000234FF461411360CEF20001CB
:102CD000D3604FF0007013614FF48052C1F8800050
:102CE000C4F2020281F81933936923F400639361FB
:102CF00000238AF80050CAF8043083F31188202397
:102D0000756183F31188E36800221A60D968022094
:102D100021F0FF012070D96082F31188202383F312
:102D2000118840F60004C2F200042378022B16D169
:102D3000E26800234FF461411360CEF20001D360DA
:102D40004FF0005013614FF48052C1F88000C4F27C
:102D5000020281F81D33D36923F00203D3610023FB
:102D60002570636083F31188D8F8002040F64C206A
:102D7000002A7FF454AE43F228010023C4F2182342
:102D8000C0F60001C2F200003B60FFF759F94FE6C0
:102D90004FF48053C4F2020399694FF4614241F445
:102DA00000619961D968CEF2000241F40061D960F6
:102DB0000021D96070214FF4585382F81913C0F2E2
:102DC0006E134FF00071C2F880112F201160C9F806
:102DD0000830B8E6886800287FF452AF43F0040357
:102DE00050E74FF48053C4F20203D9694FF46140B5
:102DF00041F00201D9611969CEF2000041F00201EF
:102E000019610021196170234FF4585180F81D3366
:102E1000C0F26E114FF00053C0F880310360D368E8
:102E20009160B1E643F002032CE700BFAFF30080EE
:102E300068616C6C6F206D756E646F200A200D00E8
:102E40000000000000000000696E666F3A200A0072
:102E50000000000000000000000000000000000072
:102E60000000000000000000000000000000000062
:102E70000000000000000000000000000000000052
:102E80000000000000000000000000000000000042
:102E90000000000000000000000000000000000032
:102EA0000000000000000000000000000000000022
:102EB0000000000000000000000000000000000012
:102EC000000000000000000000C20100000000003F
:102ED00000000000511B0008411F0008811A000873
:102EE000011A0008711A0008F1190008411B0008B6
:102EF000311F0008626C696E6B657200286E756C1C
:102F00006C29000064697374616E636961202566D1
:102F100020636D0A0D0000000A000000640000003C
:102F2000E803000010270000A086010040420F00C7
:102F30008096980000E1F50500CA9A3BB830000879
:102F4000A80D0020A80D0020A80D0020B830000812
:102F5000000000000000000000000000B830000881
:102F6000000000000000000000000000B830000871
:102F7000000000000000000000000000B830000861
:102F8000000000000000000000000000B830000851
:102F9000000000000000000000000000B830000841
:102FA000000000000000000000000000B830000831
:102FB0000000000000000000000000006D61696E6C
:102FC00000160120040244080C1014181C202122B1
:102FD000000000008025000000000000A086010025
:102FE0003124000800000000000000000100000083
:102FF0000000000069646C65000000006E6F6E6187
:103000006D650000626567616E2025780A0D00001D
:1030100073686F74204943552025780A0D0000001D
:1030200069662025780A0D00656C732025780A0DE5
:10303000000000007961207061736F2063622025B9
:10304000630A0D006E2025630A0D0000436F756E44
:10305000742025640A0D0000646174612025730AE0
:103060000D000000696E666F2025730A0D000000D8
:1030700076616C6F723A20256620636D0A0D000040
:1030800069734F6B2025640A0D0000002D2D2D2D36
:103090002D2D202D2D2D2D2D2D202D2D2D2D2D2D7A
:1030A0002D2025780A0D000020A10700211200081C
:0830B000000000000000000018
:04000005080001816D
:00000001FF
